:100000000004001049010000C5010000CB01000000
:1000100000000000000000000000000027F7FFEFD4
:10002000000000000000000000000000D1010000FE
:100030000000000000000000D7010000DD0100000A
:10004000E3010000E301000000000000E301000004
:10005000E3010000E30100000000000000000000D8
:10006000E3010000E3010000E3010000E301000000
:10007000E3010000E301000000000000E3010000D4
:100080000000000000000000000000000000000070
:100090000000000000000000000000000000000060
:1000A000E3010000E3010000E3010000E3010000C0
:1000B000E3010000E3010000E3010000E3010000B0
:1000C00040020000000000100000000000000010CE
:1000D0000000000080B588B000AFF860B9607A60B9
:1000E000BB68FB61FB68BB6100237B610AE0BA6906
:1000F000131DBB61FB69191DF96112681A607B69E8
:1001000004337B617A697B689A42F0D3C046BD466E
:1001100008B080BD80B584B000AF786039607B687E
:10012000FB600023BB6007E0FB681A1DFA60002239
:100130001A60BB680433BB60BA683B689A42F3D369
:10014000C046BD4604B080BD80B584B000AF1A4B38
:10015000FB6014E0FB681A1DFA601B683B60FB68DB
:100160001A1DFA601B68BB60FB681A1DFA601B68E9
:100170007B607A68B9683B681800FFF7ABFFFA68E4
:100180000E4B9A42E6D30FE0FB681A1DFA601B681B
:10019000BB60FB681A1DFA601B687B607A68BB68ED
:1001A00011001800FFF7B6FFFA68054B9A42EBD32F
:1001B00000F042F8FEE7C046C0000000CC0000009E
:1001C000D400000080B500AFFEE780B500AFFEE7C9
:1001D00080B500AFFEE780B500AFFEE780B500AFA9
:1001E000FEE780B500AFFEE780B582B000AF114AF0
:1001F0008023D3580F490722134380228B500D4A86
:100200008023D3580B490622134380228B50A0230E
:100210001A0680239B01D358A022120610211943ED
:1002200080239B01D150A0231A068A239B01102111
:10023000D150FEE70080044010B5FFF7D5FF10BD98
:0400000300000149AF
:00000001FF
